{
  "contractName": "BlockMiner",
  "abi": [
    {
      "inputs": [],
      "payable": false,
      "stateMutability": "nonpayable",
      "type": "constructor",
      "signature": "constructor"
    },
    {
      "constant": false,
      "inputs": [],
      "name": "mine",
      "outputs": [],
      "payable": false,
      "stateMutability": "nonpayable",
      "type": "function",
      "signature": "0x99f4b251"
    }
  ],
  "bytecode": "0x6080604052348015600f57600080fd5b5060008055608e806100226000396000f300608060405260043610603e5763ffffffff7c010000000000000000000000000000000000000000000000000000000060003504166399f4b25181146043575b600080fd5b348015604e57600080fd5b5060556057565b005b6000805460010190555600a165627a7a723058209fbf8944760899e00d7d9e205d74f079fe88dbdf76a04582409ea5df53d6807a0029",
  "source": "pragma solidity ^0.4.0; \n\n// used to \"waste\" blocks for truffle tests\ncontract BlockMiner {\n    uint blocksMined;\n\n    constructor () public {\n        blocksMined = 0;\n    }\n\n    function mine() public {\n       blocksMined += 1;\n    }\n}",
  "sourcePath": "contracts/tools/BlockMiner.sol",
  "compiler": {
    "name": "solc",
    "version": "0.4.24+commit.e67f0147.Emscripten.clang"
  },
  "schemaVersion": "3.0.0-beta.0",
  "updatedAt": "2018-10-24T11:05:18.560Z"
}